:100000000C9434000C9449000C9449000C94490061
:100010000C9449000C9449000C9449000C9449003C
:100020000C9449000C9449000C9449000C9449002C
:100030000C9449000C9449000C9449000C9449001C
:100040000C9449000C9449000C9449000C9449000C
:100050000C9449000C9449000C9449000C944900FC
:100060000C9449000C94490011241FBECFEFD8E036
:10007000DEBFCDBF11E0A0E0B1E0EAE1F2E002C0F6
:1000800005900D92AC30B107D9F70E94F0000C94A6
:100090000B010C9400009C01A0E8B0E082E08C937E
:1000A000E1E8F0E088E180833093870020938600C8
:1000B0003695279530938900209388008C9180682D
:1000C0008C938081826080830895E0E8F0E08081F5
:1000D0008F738083E1E88081887F808329980895E9
:1000E0000E944B008BE792E90197F1F700C00000F6
:1000F0000C946500EF92FF920F931F93CF93DF93C1
:1001000000D000D000D0CDB7DEB74598439A86E046
:10011000E0E0F1E0DE01119601900D928A95E1F7A1
:100120008E010F5F1F4F7E0187E0E80EF11CF80182
:10013000819191918F010E944B008BE792E9019789
:10014000F1F700C000000E151F0589F70E94650039
:100150000F900F900F900F900F900F90DF91CF9115
:100160001F910F91FF90EF900895EF92FF920F93E0
:100170001F93CF93DF9300D000D000D0CDB7DEB770
:100180004598449A86E0E6E0F1E0DE0111960190A0
:100190000D928A95E1F78E010F5F1F4F7E0187E078
:1001A000E80EF11CF801819191918F010E944B00A2
:1001B0008BE792E90197F1F700C000000E151F05CB
:1001C00089F70E9465000F900F900F900F900F908D
:1001D0000F90DF91CF911F910F91FF90EF900895B5
:1001E000219A38983998409A419A3B9A3C9A3D9A7C
:1001F000439844984598309905C00E947A00309BF6
:10020000FECF4398319905C00E94B500319BFECFC7
:0A0210004498459AF0CFF894FFCF10
:0C021A003E01FC00D4001B010B011B0185
:00000001FF
