:100000000C9434000C9449000C9449000C94490061
:100010000C9449000C9449000C9449000C9449003C
:100020000C9449000C9449000C9449000C9449002C
:100030000C9449000C9449000C9449000C9449001C
:100040000C9449000C9449000C9449000C9449000C
:100050000C9449000C9449000C9449000C944900FC
:100060000C9449000C94490011241FBECFEFD8E036
:10007000DEBFCDBF11E0A0E0B1E0E4E0F6E002C0F9
:1000800005900D92A031B107D9F70E944E010C9452
:1000900000030C940000A0E8B0E082E08C93E1E85B
:1000A000F0E088E180838C9180688C93808182600D
:1000B000808308959C0190938700809386003695F5
:1000C000279530938900209388000895E0E8F0E0B8
:1000D00080818F738083E1E88081887F8083299885
:1000E0000895EF92FF920F931F93CF93DF9300D069
:1000F00000D000D0CDB7DEB74598439A0E944B00A0
:1001000086E0E4E0F1E0DE01119601900D928A951F
:10011000E1F78E010F5F1F4F7E0187E0E80EF11CB3
:10012000F801819191918F010E945A008AE090E03C
:10013000EFE3FCE93197F1F700C000000197C1F748
:100140000E151F0569F70E9466000F900F900F9023
:100150000F900F900F90DF91CF911F910F91FF9013
:10016000EF900895EF92FF920F931F93CF93DF9339
:1001700000D000D000D0CDB7DEB74598449A0E9499
:100180004B0086E0EAE0F1E0DE01119601900D926D
:100190008A95E1F78E010F5F1F4F7E0187E0E80E21
:1001A000F11CF801819191918F010E945A008AE01F
:1001B00090E0EFE3FCE93197F1F700C00000019710
:1001C000C1F70E151F0569F70E9466000F900F908A
:1001D0000F900F900F900F90DF91CF911F910F9183
:1001E000FF90EF9008958F70806480937C008091E1
:1001F0007A00806480937A0080917A0086FDFCCF3B
:1002000080917800909179000895CF93DF9380E4F6
:1002100080937C0087E880937A00C5E0D0E080E09E
:100220000E94F3008FEC97E00197F1F700C0000007
:100230002197A9F782E00E94F300DF91CF910C94FF
:10024000920284B18C6284B92A9A81E58CBD0895AA
:100250002A988EBD0DB407FEFDCF6EBD0DB407FE0E
:10026000FDCF2A9A089560E08FE00E94280163E0A4
:100270008BE00E9428016FEF89E00E94280162E074
:100280008AE00E94280161E08CE00E9428018FE052
:1002900097E20197F1F700C000000895219A0E94AB
:1002A0004B000E94660038983998409A419A3B9AD0
:1002B0003C9A3D9A4398449845980E9405010E94B3
:1002C00021010E94330183E6A82EB12C9AE0E92E89
:1002D000F12C0E948D02B5010E9419026C018C0163
:1002E0000F5F1F4F0E948D02B5010E941902EC01A1
:1002F0002196C017D107B1F36FE081E00E94280179
:100300006FE082E00E9428016FE083E00E942801F4
:100310006FE084E00E9428012AE0C20ED11C83E134
:10032000C816D10438F0C801B7010E94190281E053
:100330000E942801C801B7010E941902682F82E0BB
:100340000E942801CE010996439738F0CE01B701EB
:100350000E94190283E00E942801CE01B7010E9489
:100360001902682F84E00E942801459A9FEF20E738
:1003700082E0915020408040E1F700C000003099B9
:1003800003C0C017D1072CF0319927C00C171D07E7
:1003900024F59FE728E381E0915020408040E1F779
:1003A00000C0000030990BC0C017D10744F40E9470
:1003B0007100309B0BC0319B09C043988ACF3199A3
:1003C00003C00C171D079CF3459ACFCF8FE39CE920
:1003D0000197F1F700C00000ECCF309903C00C1773
:1003E0001D072CF03199F0CFC017D1076CF79FE7AC
:1003F00028E381E0915020408040E1F700C00000F8
:10040000309903C00C171D072CF03199DDCFC017B0
:10041000D107D4F60E94B200309B04C0319B02C0C9
:100420004498D2CF8FE39CE90197F1F700C0000018
:10043000F3CF97FB072E16F4009407D077FD09D071
:100440000E942D0207FC05D03EF4909581959F4FA8
:100450000895709561957F4F0895AA1BBB1B51E1CC
:1004600007C0AA1FBB1FA617B70710F0A61BB70B24
:10047000881F991F5A95A9F780959095BC01CD01C9
:1004800008958F929F92AF92BF92CF92DF92EF9298
:10049000FF92CF93DF93EC01688179818A819B8100
:1004A000611571058105910521F464E279ED8BE513
:1004B00097E02DE133EF41E050E00E949D024901B9
:1004C0005A019B01AC01A7EAB1E40E94BC026B0196
:1004D0007C01ACEEB4EFA50194010E94CA02DC01DC
:1004E000CB018C0D9D1DAE1DBF1DB7FF03C0019735
:1004F000A109B04888839983AA83BB839F77DF9142
:10050000CF91FF90EF90DF90CF90BF90AF909F90F2
:100510008F9008950E944102089580E091E00E942A
:1005200041020895A0E0B0E08093000190930101A2
:10053000A0930201B09303010895052E97FB1EF4CA
:1005400000940E94B40257FD07D00E94DE0207FC0F
:1005500003D04EF40C94B4025095409530952195FB
:100560003F4F4F4F5F4F08959095809570956195DF
:100570007F4F8F4F9F4F08950E94CF02A59F900DF0
:10058000B49F900DA49F800D911D11240895B7FF75
:100590000C94BC020E94BC02821B930B0895A29F84
:1005A000B001B39FC001A39F700D811D1124911D47
:1005B000B29F700D811D1124911D0895A1E21A2E84
:1005C000AA1BBB1BFD010DC0AA1FBB1FEE1FFF1FF7
:1005D000A217B307E407F50720F0A21BB30BE40B47
:1005E000F50B661F771F881F991F1A9469F760958E
:1005F0007095809590959B01AC01BD01CF01089548
:04060000F894FFCF9C
:10060400010000003E01FC00D4001B010B011B0192
:00000001FF
