:100000000C9434000C9449000C9449000C94490061
:100010000C9449000C9449000C9449000C9449003C
:100020000C9449000C9449000C9449000C9449002C
:100030000C9449000C9449000C9449000C9449001C
:100040000C9449000C9449000C9449000C9449000C
:100050000C9449000C9449000C9449000C944900FC
:100060000C9449000C94490011241FBECFEFD8E036
:10007000DEBFCDBF11E0A0E0B1E0E8E5F6E002C0F0
:1000800005900D92A031B107D9F70E9472010C942E
:100090002A030C940000A0E8B0E082E08C93E1E831
:1000A000F0E088E180838C9180688C93808182600D
:1000B000808308959C0190938700809386003695F5
:1000C000279530938900209388000895E0E8F0E0B8
:1000D00080818F738083E1E88081887F8083299885
:1000E0000895EF92FF920F931F93CF93DF9300D069
:1000F00000D000D0CDB7DEB74598439A0E944B00A0
:1001000086E0E4E0F1E0DE01119601900D928A951F
:10011000E1F78E010F5F1F4F7E0187E0E80EF11CB3
:10012000F801819191918F010E945A008AE090E03C
:10013000EFE3FCE93197F1F700C000000197C1F748
:100140000E151F0569F70E9466000F900F900F9023
:100150000F900F900F90DF91CF911F910F91FF9013
:10016000EF900895EF92FF920F931F93CF93DF9339
:1001700000D000D000D0CDB7DEB74598449A0E9499
:100180004B0086E0EAE0F1E0DE01119601900D926D
:100190008A95E1F78E010F5F1F4F7E0187E0E80E21
:1001A000F11CF801819191918F010E945A008AE01F
:1001B00090E0EFE3FCE93197F1F700C00000019710
:1001C000C1F70E151F0569F70E9466000F900F908A
:1001D0000F900F900F900F90DF91CF911F910F9183
:1001E000FF90EF90089590917C008F70907F892B05
:1001F00080937C0080917A00806480937A00809163
:100200007A0086FDFCCF8091780090917900089566
:10021000CF92DF92EF92FF92CF93DF938FE19EE434
:100220000197F1F700C0000082E480937C0084E82D
:1002300080937A0080917E00846080937E00C4E683
:10024000D0E0E12CF12C670182E00E94F30092E003
:10025000CC0CDD1CEE1CFF1C9A95D1F78370C82ACC
:10026000219791F7C601DF91CF91FF90EF90DF903A
:10027000CF900C94BC0284B18C6284B92A9A81E537
:100280008CBD08952A988EBD0DB407FEFDCF6EBDBE
:100290000DB407FEFDCF2A9A089560E080E00E9429
:1002A00042018FE19EE40197F1F700C0000060E099
:1002B0008FE00E94420163E08BE00E9442016FEFF9
:1002C00089E00E94420162E08AE00E94420161E00E
:1002D0008CE00E9442018FE19EE40197F1F700C09B
:1002E00000000895219A0E944B000E9466003898F1
:1002F0003998409A419A3B9A3C9A3D9A439844983F
:1003000045980E9408010E943B018FE19EE40197FD
:10031000F1F700C000000E944D0183E6A82EB12C29
:100320009AE0E92EF12C0E94B702B5010E94430227
:100330006C018C010F5F1F4F0E94B702B5010E9434
:100340004302EC012196C017D107B1F36FE081E0C1
:100350000E9442016FE082E00E9442016FE083E070
:100360000E9442016FE084E00E9442019AE0C90EBF
:10037000D11C23E1C216D10438F0C801B7010E9494
:10038000430281E00E944201C801B7010E9443027A
:10039000682F82E00E944201CE010996439738F00F
:1003A000CE01B7010E94430283E00E944201CE01C8
:1003B000B7010E944302682F84E00E944201459ADF
:1003C0008FEF90E722E0815090402040E1F700C09D
:1003D0000000309903C0C017D1072CF0319927C015
:1003E0000C171D0724F58FE798E321E0815090401A
:1003F0002040E1F700C0000030990BC0C017D107C2
:1004000044F40E947100309B0BC0319B09C043989B
:100410008ACF319903C00C171D079CF3459ACFCFA3
:100420008FE39CE90197F1F700C00000ECCF309911
:1004300003C00C171D072CF03199F0CFC017D1075E
:100440006CF79FE728E381E0915020408040E1F77E
:1004500000C00000309903C00C171D072CF0319923
:10046000DDCFC017D107D4F60E94B200309B04C084
:10047000319B02C04498D2CF8FE39CE90197F1F7FA
:1004800000C00000F3CF97FB072E16F4009407D0AE
:1004900077FD09D00E94570207FC05D03EF49095E5
:1004A00081959F4F0895709561957F4F0895AA1B80
:1004B000BB1B51E107C0AA1FBB1FA617B70710F04F
:1004C000A61BB70B881F991F5A95A9F78095909581
:1004D000BC01CD0108958F929F92AF92BF92CF92AF
:1004E000DF92EF92FF92CF93DF93EC0168817981E5
:1004F0008A819B81611571058105910521F464E272
:1005000079ED8BE597E02DE133EF41E050E00E947B
:10051000C70249015A019B01AC01A7EAB1E40E945C
:10052000E6026B017C01ACEEB4EFA50194010E94E0
:10053000F402DC01CB018C0D9D1DAE1DBF1DB7FF6C
:1005400003C00197A109B04888839983AA83BB831C
:100550009F77DF91CF91FF90EF90DF90CF90BF908A
:10056000AF909F908F9008950E946B02089580E055
:1005700091E00E946B020895A0E0B0E0809300013A
:1005800090930101A0930201B09303010895052EF9
:1005900097FB1EF400940E94DE0257FD07D00E94D4
:1005A000080307FC03D04EF40C94DE0250954095EE
:1005B000309521953F4F4F4F5F4F0895909580950F
:1005C000709561957F4F8F4F9F4F08950E94F9025C
:1005D000A59F900DB49F900DA49F800D911D112497
:1005E0000895B7FF0C94E6020E94E602821B930B6B
:1005F0000895A29FB001B39FC001A39F700D811DFC
:100600001124911DB29F700D811D1124911D08951B
:10061000A1E21A2EAA1BBB1BFD010DC0AA1FBB1F06
:10062000EE1FFF1FA217B307E407F50720F0A21B78
:10063000B30BE40BF50B661F771F881F991F1A94E5
:1006400069F760957095809590959B01AC01BD010F
:08065000CF010895F894FFCFDB
:10065800010000003E01FC00D4001B010B011B013E
:00000001FF
