:100000000C9434000C943E000C943E000C943E0082
:100010000C943E000C943E000C943E000C943E0068
:100020000C943E000C943E000C943E000C943E0058
:100030000C943E000C943E000C943E000C943E0048
:100040000C943E000C943E000C943E000C943E0038
:100050000C943E000C943E000C943E000C943E0028
:100060000C943E000C943E0011241FBECFEFD8E04C
:10007000DEBFCDBF0E9467000C947C000C94000092
:1000800084B18C6284B92A9A81E58CBD08952A983E
:100090008EBD0DB407FEFDCF6EBD0DB407FEFDCFC6
:1000A0002A9A089560E08FE00E94470063E08BE0A9
:1000B0000E9447006FEF89E00E94470065E08AE0F8
:1000C0000E94470061E08CE00C94470008950E9474
:1000D00040000E94520061E081E00E94470062E01F
:1000E00082E00E94470063E083E00E94470064E0F2
:0C00F00084E00E944700FFCFF894FFCF8F
:00000001FF
