:100000000C9434000C943E000C943E000C943E0082
:100010000C943E000C943E000C943E000C943E0068
:100020000C943E000C943E000C943E000C943E0058
:100030000C943E000C943E000C943E000C943E0048
:100040000C943E000C943E000C943E000C943E0038
:100050000C943E000C943E000C943E000C943E0028
:100060000C943E000C943E0011241FBECFEFD8E04C
:10007000DEBFCDBF0E9470000C9481000C94000084
:100080009C01219AA0E8B0E082E08C93E1E8F0E0E6
:1000900088E18083309387002093860036952795EA
:1000A00030938900209388008C9180688C938081A4
:1000B000826080830895E0E8F0E080818F73808320
:1000C000E1E88081887F8083299808950E9440001C
:1000D0008BE792E90197F1F700C000000C945B00F8
:1000E00038983998409A419A309904C08EE391E04B
:1000F0000E9466003199F8CF84ED90E00E9466007E
:06010000F3CFF894FFCFDD
:00000001FF
