:100000000C9434000C9449000C9449000C94490061
:100010000C9449000C9449000C9449000C9449003C
:100020000C9449000C9449000C9449000C9449002C
:100030000C9449000C9449000C9449000C9449001C
:100040000C9449000C9449000C9449000C9449000C
:100050000C9449000C9449000C9449000C944900FC
:100060000C9449000C94490011241FBECFEFD8E036
:10007000DEBFCDBF11E0A0E0B1E0E0E5F4E002C0FA
:1000800005900D92A031B107D9F70E940F010C9491
:1000900026020C9400009C01219AA0E8B0E082E0C6
:1000A0008C93E1E8F0E088E180833093870020932F
:1000B00086003695279530938900209388008C918F
:1000C00080688C938081826080830895E0E8F0E00E
:1000D00080818F738083E1E88081887F8083299885
:1000E0000895EF92FF920F931F93CF93DF9300D069
:1000F00000D000D0CDB7DEB786E0E4E0F1E0DE016D
:10010000119601900D928A95E1F78E010F5F1F4FB6
:100110007E0187E0E80EF11CF801819191918F0139
:100120000E944B008BE792E90197F1F700C00000B5
:100130000E151F0589F70F900F900F900F900F90DD
:100140000F90DF91CF911F910F91FF90EF900C9442
:100150006600EF92FF920F931F93CF93DF9300D02F
:1001600000D000D0CDB7DEB786E0EAE0F1E0DE01F6
:10017000119601900D928A95E1F78E010F5F1F4F46
:100180007E0187E0E80EF11CF801819191918F01C9
:100190000E944B008BE792E90197F1F700C0000045
:1001A0000E151F0589F70F900F900F900F900F906D
:1001B0000F90DF91CF911F910F91FF90EF900C94D2
:1001C00066008F70806480937C0080917A008064E8
:1001D00080937A0080917A0086FDFCCF8091780030
:1001E000909179000895CF93DF9380E480937C0011
:1001F00087E880937A00C5E0D0E080E00E94E100CB
:1002000089EF90E00197F1F700C000002197A9F76E
:1002100080E00E94E100DF91CF910C94B80100D002
:10022000CDB7DEB70E94F3003B9A0E94B30169E0AC
:1002300070E00E943F0189839A83439A0E94710073
:1002400080E090E029813A81281739076CF44398BF
:100250000E94A9003FE946E881E0315040408040DB
:10026000E1F700C00000E1CF2FE33DE043E0215083
:1002700030404040E1F700C000000196E3CF97FB1B
:10028000072E16F4009407D077FD09D00E94530181
:1002900007FC05D03EF4909581959F4F0895709589
:1002A00061957F4F0895AA1BBB1B51E107C0AA1F90
:1002B000BB1FA617B70710F0A61BB70B881F991F07
:1002C0005A95A9F780959095BC01CD0108958F921C
:1002D0009F92AF92BF92CF92DF92EF92FF92CF9315
:1002E000DF93EC01688179818A819B8161157105B9
:1002F0008105910521F464E279ED8BE597E02DE12C
:1003000033EF41E050E00E94C30149015A019B01D3
:10031000AC01A7EAB1E40E94E2016B017C01ACEE02
:10032000B4EFA50194010E94F001DC01CB018C0D1A
:100330009D1DAE1DBF1DB7FF03C00197A109B048A9
:1003400088839983AA83BB839F77DF91CF91FF90A6
:10035000EF90DF90CF90BF90AF909F908F900895D7
:100360000E946701089580E091E00E94670108956E
:10037000A0E0B0E08093000190930101A0930201FE
:10038000B09303010895052E97FB1EF400940E947C
:10039000DA0157FD07D00E94040207FC03D04EF497
:1003A0000C94DA0150954095309521953F4F4F4F71
:1003B0005F4F089590958095709561957F4F8F4F11
:1003C0009F4F08950E94F501A59F900DB49F900D39
:1003D000A49F800D911D11240895B7FF0C94E20194
:1003E0000E94E201821B930B0895A29FB001B39F6C
:1003F000C001A39F700D811D1124911DB29F700D2E
:10040000811D1124911D0895A1E21A2EAA1BBB1B68
:10041000FD010DC0AA1FBB1FEE1FFF1FA217B307D0
:10042000E407F50720F0A21BB30BE40BF50B661FE6
:10043000771F881F991F1A9469F7609570958095AA
:1004400090959B01AC01BD01CF010895F894FFCFB9
:10045000010000003E01FC00D4001B010B011B0148
:00000001FF
