:100000000C9434000C943E000C943E000C943E0082
:100010000C943E000C943E000C943E000C943E0068
:100020000C943E000C943E000C943E000C943E0058
:100030000C943E000C943E000C943E000C943E0048
:100040000C943E000C943E000C943E000C943E0038
:100050000C943E000C943E000C943E000C943E0028
:100060000C943E000C943E0011241FBECFEFD8E04C
:10007000DEBFCDBF0E9440000C946A000C940000CB
:10008000559A569A579A20E290E48BB180788BB9B2
:100090008BB182278BB9EFE3FCE93197F1F700C010
:1000A00000008BB1807E8BB98BB189278BB9EFE3D0
:1000B000FCE93197F1F700C000008BB1807C8BB96F
:1000C0008BB180588BB9EFE3FCE93197F1F700C0B1
:0800D0000000DBCFF894FFCF24
:00000001FF
