:100000000C9434000C943E000C943E000C943E0082
:100010000C943E000C943E000C943E000C943E0068
:100020000C943E000C943E000C943E000C943E0058
:100030000C943E000C943E000C943E000C943E0048
:100040000C943E000C943E000C943E000C943E0038
:100050000C943E000C943E000C943E000C943E0028
:100060000C943E000C943E0011241FBECFEFD8E04C
:10007000DEBFCDBF0E9440000C9465000C940000D0
:100080003B9A3C9A3D9A88B1887F88B988B1807F35
:1000900088B988B1807E88B920E288E090E128B9EB
:1000A000EFE4F3EC3197F1F700C0000098B9EFE40A
:1000B000F3EC3197F1F700C0000088B9EFE4F3ECFE
:0E00C0003197F1F700C00000EACFF894FFCFAF
:00000001FF
