:100000000C9434000C943E000C943E000C943E0082
:100010000C943E000C943E000C943E000C943E0068
:100020000C943E000C943E000C943E000C943E0058
:100030000C943E000C943E000C943E000C943E0048
:100040000C943E000C943E000C943E000C943E0038
:100050000C943E000C943E000C943E000C943E0028
:100060000C943E000C943E0011241FBECFEFD8E04C
:10007000DEBFCDBF0E9440000C945B000C940000DA
:10008000559A90E28BB189278BB92FEF39E688E139
:10009000215030408040E1F700C000008BB1807EED
:1000A0008BB92FEF39E688E1215030408040E1F7ED
:0A00B00000C00000E7CFF894FFCF76
:00000001FF
