:100000000C9434000C943E000C943E000C943E0082
:100010000C943E000C943E000C943E000C943E0068
:100020000C943E000C943E000C943E000C943E0058
:100030000C943E000C943E000C943E000C943E0048
:100040000C943E000C943E000C943E000C943E0038
:100050000C943E000C943E000C943E000C943E0028
:100060000C943E000C943E0011241FBECFEFD8E04C
:10007000DEBFCDBF0E946A000C947F000C9400008C
:1000800084B18C6284B92A9A81E58CBD08952A983E
:100090008EBD0DB407FEFDCF6EBD0DB407FEFDCFC6
:1000A0002A9A089560E08FE00E94470060E08BE0AC
:1000B0000E94470061E089E00E94470065E08AE015
:1000C0000E94470061E08CE00C944700682F81E0BB
:1000D0000C9447000E9440000E945200C0E08C2F08
:1000E0000E9466002FE38DE093E021508040904015
:1000F000E1F700C00000CF5FCA3089F7EFCFF89476
:02010000FFCF2F
:00000001FF
